{
  "_format": "hh-sol-artifact-1",
  "contractName": "BTTCERC721",
  "sourceName": "contracts/BTTCERC721.sol",
  "abi": [
    {
      "inputs": [
        {
          "internalType": "string",
          "name": "name",
          "type": "string"
        },
        {
          "internalType": "string",
          "name": "symbol",
          "type": "string"
        }
      ],
      "stateMutability": "nonpayable",
      "type": "constructor"
    },
    {
      "anonymous": false,
      "inputs": [
        {
          "indexed": true,
          "internalType": "address",
          "name": "owner",
          "type": "address"
        },
        {
          "indexed": true,
          "internalType": "address",
          "name": "approved",
          "type": "address"
        },
        {
          "indexed": true,
          "internalType": "uint256",
          "name": "tokenId",
          "type": "uint256"
        }
      ],
      "name": "Approval",
      "type": "event"
    },
    {
      "anonymous": false,
      "inputs": [
        {
          "indexed": true,
          "internalType": "address",
          "name": "owner",
          "type": "address"
        },
        {
          "indexed": true,
          "internalType": "address",
          "name": "operator",
          "type": "address"
        },
        {
          "indexed": false,
          "internalType": "bool",
          "name": "approved",
          "type": "bool"
        }
      ],
      "name": "ApprovalForAll",
      "type": "event"
    },
    {
      "anonymous": false,
      "inputs": [
        {
          "indexed": true,
          "internalType": "address",
          "name": "from",
          "type": "address"
        },
        {
          "indexed": true,
          "internalType": "address",
          "name": "to",
          "type": "address"
        },
        {
          "indexed": true,
          "internalType": "uint256",
          "name": "tokenId",
          "type": "uint256"
        }
      ],
      "name": "Transfer",
      "type": "event"
    },
    {
      "inputs": [
        {
          "internalType": "uint256",
          "name": "BidId",
          "type": "uint256"
        }
      ],
      "name": "BidURI",
      "outputs": [
        {
          "internalType": "string",
          "name": "",
          "type": "string"
        }
      ],
      "stateMutability": "view",
      "type": "function"
    },
    {
      "inputs": [
        {
          "internalType": "uint256",
          "name": "ProjectId",
          "type": "uint256"
        },
        {
          "internalType": "uint256",
          "name": "GranttId",
          "type": "uint256"
        }
      ],
      "name": "CreateGrantProject",
      "outputs": [
        {
          "internalType": "uint256",
          "name": "",
          "type": "uint256"
        }
      ],
      "stateMutability": "nonpayable",
      "type": "function"
    },
    {
      "inputs": [],
      "name": "_EventTokenSearchIds",
      "outputs": [
        {
          "internalType": "uint256",
          "name": "",
          "type": "uint256"
        }
      ],
      "stateMutability": "view",
      "type": "function"
    },
    {
      "inputs": [],
      "name": "_GrantEventIds",
      "outputs": [
        {
          "internalType": "uint256",
          "name": "",
          "type": "uint256"
        }
      ],
      "stateMutability": "view",
      "type": "function"
    },
    {
      "inputs": [
        {
          "internalType": "uint256",
          "name": "",
          "type": "uint256"
        }
      ],
      "name": "_GrantEventURIs",
      "outputs": [
        {
          "internalType": "string",
          "name": "",
          "type": "string"
        }
      ],
      "stateMutability": "view",
      "type": "function"
    },
    {
      "inputs": [],
      "name": "_GrantProjectIds",
      "outputs": [
        {
          "internalType": "uint256",
          "name": "",
          "type": "uint256"
        }
      ],
      "stateMutability": "view",
      "type": "function"
    },
    {
      "inputs": [],
      "name": "_GrantVoteIds",
      "outputs": [
        {
          "internalType": "uint256",
          "name": "",
          "type": "uint256"
        }
      ],
      "stateMutability": "view",
      "type": "function"
    },
    {
      "inputs": [
        {
          "internalType": "uint256",
          "name": "",
          "type": "uint256"
        }
      ],
      "name": "_JudgerURIs",
      "outputs": [
        {
          "internalType": "string",
          "name": "",
          "type": "string"
        }
      ],
      "stateMutability": "view",
      "type": "function"
    },
    {
      "inputs": [
        {
          "internalType": "uint256",
          "name": "",
          "type": "uint256"
        },
        {
          "internalType": "uint256",
          "name": "",
          "type": "uint256"
        }
      ],
      "name": "_SearchedStore",
      "outputs": [
        {
          "internalType": "string",
          "name": "",
          "type": "string"
        }
      ],
      "stateMutability": "view",
      "type": "function"
    },
    {
      "inputs": [
        {
          "internalType": "uint256",
          "name": "_tokenId",
          "type": "uint256"
        }
      ],
      "name": "_getSearchedTokenURI",
      "outputs": [
        {
          "internalType": "string",
          "name": "",
          "type": "string"
        }
      ],
      "stateMutability": "view",
      "type": "function"
    },
    {
      "inputs": [
        {
          "internalType": "uint256",
          "name": "bidId",
          "type": "uint256"
        },
        {
          "internalType": "string",
          "name": "_bidURI",
          "type": "string"
        }
      ],
      "name": "_setBidURI",
      "outputs": [],
      "stateMutability": "nonpayable",
      "type": "function"
    },
    {
      "inputs": [
        {
          "internalType": "uint256",
          "name": "_eventId",
          "type": "uint256"
        },
        {
          "internalType": "string",
          "name": "_raised",
          "type": "string"
        }
      ],
      "name": "_setEventRaised",
      "outputs": [],
      "stateMutability": "nonpayable",
      "type": "function"
    },
    {
      "inputs": [
        {
          "internalType": "uint256",
          "name": "eventId",
          "type": "uint256"
        },
        {
          "internalType": "string",
          "name": "_eventWallet",
          "type": "string"
        },
        {
          "internalType": "string",
          "name": "_eventURI",
          "type": "string"
        }
      ],
      "name": "_setEventURI",
      "outputs": [],
      "stateMutability": "nonpayable",
      "type": "function"
    },
    {
      "inputs": [
        {
          "internalType": "uint256",
          "name": "eventId",
          "type": "uint256"
        },
        {
          "internalType": "string",
          "name": "_eventURI",
          "type": "string"
        }
      ],
      "name": "_setGrantEventURI",
      "outputs": [],
      "stateMutability": "nonpayable",
      "type": "function"
    },
    {
      "inputs": [
        {
          "internalType": "uint256",
          "name": "TokenBidId",
          "type": "uint256"
        },
        {
          "internalType": "uint256",
          "name": "TokenId",
          "type": "uint256"
        },
        {
          "internalType": "string",
          "name": "_BidURI",
          "type": "string"
        }
      ],
      "name": "_setTokenBid",
      "outputs": [],
      "stateMutability": "nonpayable",
      "type": "function"
    },
    {
      "inputs": [
        {
          "internalType": "uint256",
          "name": "EventTokenId",
          "type": "uint256"
        },
        {
          "internalType": "uint256",
          "name": "EventId",
          "type": "uint256"
        },
        {
          "internalType": "string",
          "name": "_tokenURI",
          "type": "string"
        }
      ],
      "name": "_setTokenEvent",
      "outputs": [],
      "stateMutability": "nonpayable",
      "type": "function"
    },
    {
      "inputs": [
        {
          "internalType": "uint256",
          "name": "tokenId",
          "type": "uint256"
        },
        {
          "internalType": "string",
          "name": "_tokenURI",
          "type": "string"
        }
      ],
      "name": "_setTokenURI",
      "outputs": [],
      "stateMutability": "nonpayable",
      "type": "function"
    },
    {
      "inputs": [
        {
          "internalType": "address",
          "name": "to",
          "type": "address"
        },
        {
          "internalType": "uint256",
          "name": "tokenId",
          "type": "uint256"
        }
      ],
      "name": "approve",
      "outputs": [],
      "stateMutability": "nonpayable",
      "type": "function"
    },
    {
      "inputs": [
        {
          "internalType": "address",
          "name": "owner",
          "type": "address"
        }
      ],
      "name": "balanceOf",
      "outputs": [
        {
          "internalType": "uint256",
          "name": "",
          "type": "uint256"
        }
      ],
      "stateMutability": "view",
      "type": "function"
    },
    {
      "inputs": [
        {
          "internalType": "address",
          "name": "_claimer",
          "type": "address"
        },
        {
          "internalType": "string",
          "name": "_tokenURI",
          "type": "string"
        },
        {
          "internalType": "uint256",
          "name": "_eventid",
          "type": "uint256"
        }
      ],
      "name": "claimToken",
      "outputs": [
        {
          "internalType": "uint256",
          "name": "",
          "type": "uint256"
        }
      ],
      "stateMutability": "nonpayable",
      "type": "function"
    },
    {
      "inputs": [
        {
          "internalType": "uint256",
          "name": "_tokenId",
          "type": "uint256"
        },
        {
          "internalType": "string",
          "name": "_bidURI",
          "type": "string"
        },
        {
          "internalType": "string",
          "name": "_updatedURI",
          "type": "string"
        },
        {
          "internalType": "uint256",
          "name": "_eventid",
          "type": "uint256"
        },
        {
          "internalType": "string",
          "name": "_raised",
          "type": "string"
        }
      ],
      "name": "createBid",
      "outputs": [],
      "stateMutability": "nonpayable",
      "type": "function"
    },
    {
      "inputs": [
        {
          "internalType": "string",
          "name": "_eventWallet",
          "type": "string"
        },
        {
          "internalType": "string",
          "name": "_eventURI",
          "type": "string"
        }
      ],
      "name": "createEvent",
      "outputs": [
        {
          "internalType": "uint256",
          "name": "",
          "type": "uint256"
        }
      ],
      "stateMutability": "nonpayable",
      "type": "function"
    },
    {
      "inputs": [
        {
          "internalType": "string",
          "name": "_eventURI",
          "type": "string"
        }
      ],
      "name": "createGrantEvent",
      "outputs": [
        {
          "internalType": "uint256",
          "name": "",
          "type": "uint256"
        }
      ],
      "stateMutability": "nonpayable",
      "type": "function"
    },
    {
      "inputs": [
        {
          "internalType": "string",
          "name": "Wallet",
          "type": "string"
        },
        {
          "internalType": "uint256",
          "name": "ProjectId",
          "type": "uint256"
        },
        {
          "internalType": "uint256",
          "name": "GranttId",
          "type": "uint256"
        }
      ],
      "name": "createGrantVote",
      "outputs": [
        {
          "internalType": "uint256",
          "name": "",
          "type": "uint256"
        }
      ],
      "stateMutability": "nonpayable",
      "type": "function"
    },
    {
      "inputs": [
        {
          "internalType": "uint256",
          "name": "eventId",
          "type": "uint256"
        }
      ],
      "name": "eventURI",
      "outputs": [
        {
          "internalType": "string[2]",
          "name": "",
          "type": "string[2]"
        }
      ],
      "stateMutability": "view",
      "type": "function"
    },
    {
      "inputs": [
        {
          "internalType": "uint256",
          "name": "tokenId",
          "type": "uint256"
        }
      ],
      "name": "getApproved",
      "outputs": [
        {
          "internalType": "address",
          "name": "",
          "type": "address"
        }
      ],
      "stateMutability": "view",
      "type": "function"
    },
    {
      "inputs": [
        {
          "internalType": "string",
          "name": "_bidURI",
          "type": "string"
        }
      ],
      "name": "getBidIdByUri",
      "outputs": [
        {
          "internalType": "uint256",
          "name": "",
          "type": "uint256"
        }
      ],
      "stateMutability": "view",
      "type": "function"
    },
    {
      "inputs": [
        {
          "internalType": "uint256",
          "name": "TokenID",
          "type": "uint256"
        }
      ],
      "name": "getBidsSearchToken",
      "outputs": [
        {
          "internalType": "string[]",
          "name": "",
          "type": "string[]"
        }
      ],
      "stateMutability": "view",
      "type": "function"
    },
    {
      "inputs": [
        {
          "internalType": "uint256",
          "name": "Grantid",
          "type": "uint256"
        },
        {
          "internalType": "uint256",
          "name": "ProjectId",
          "type": "uint256"
        }
      ],
      "name": "getCheckSubmittedProjectGrant",
      "outputs": [
        {
          "internalType": "bool",
          "name": "",
          "type": "bool"
        }
      ],
      "stateMutability": "view",
      "type": "function"
    },
    {
      "inputs": [
        {
          "internalType": "uint256",
          "name": "_eventId",
          "type": "uint256"
        }
      ],
      "name": "getEventRaised",
      "outputs": [
        {
          "internalType": "string",
          "name": "",
          "type": "string"
        }
      ],
      "stateMutability": "view",
      "type": "function"
    },
    {
      "inputs": [
        {
          "internalType": "uint256",
          "name": "EventId",
          "type": "uint256"
        },
        {
          "internalType": "string",
          "name": "_tokenURI",
          "type": "string"
        }
      ],
      "name": "getGetEventsTokenID",
      "outputs": [
        {
          "internalType": "uint256",
          "name": "",
          "type": "uint256"
        }
      ],
      "stateMutability": "view",
      "type": "function"
    },
    {
      "inputs": [
        {
          "internalType": "string",
          "name": "Wallet",
          "type": "string"
        }
      ],
      "name": "getSearchEventbyWallet",
      "outputs": [
        {
          "internalType": "string[]",
          "name": "",
          "type": "string[]"
        }
      ],
      "stateMutability": "view",
      "type": "function"
    },
    {
      "inputs": [
        {
          "internalType": "uint256",
          "name": "Grantid",
          "type": "uint256"
        },
        {
          "internalType": "uint256",
          "name": "ProjectId",
          "type": "uint256"
        }
      ],
      "name": "getSearchedGrantVoteProject",
      "outputs": [
        {
          "internalType": "string[]",
          "name": "",
          "type": "string[]"
        }
      ],
      "stateMutability": "view",
      "type": "function"
    },
    {
      "inputs": [
        {
          "internalType": "uint256",
          "name": "Grantid",
          "type": "uint256"
        }
      ],
      "name": "getSearchedProjectByGrantID",
      "outputs": [
        {
          "internalType": "uint256[]",
          "name": "",
          "type": "uint256[]"
        }
      ],
      "stateMutability": "view",
      "type": "function"
    },
    {
      "inputs": [
        {
          "internalType": "uint256",
          "name": "TokenID",
          "type": "uint256"
        }
      ],
      "name": "getTotalBid",
      "outputs": [
        {
          "internalType": "string[]",
          "name": "",
          "type": "string[]"
        }
      ],
      "stateMutability": "view",
      "type": "function"
    },
    {
      "inputs": [
        {
          "internalType": "string",
          "name": "_eventURI",
          "type": "string"
        }
      ],
      "name": "geteventIdByUri",
      "outputs": [
        {
          "internalType": "uint256",
          "name": "",
          "type": "uint256"
        }
      ],
      "stateMutability": "view",
      "type": "function"
    },
    {
      "inputs": [
        {
          "internalType": "string",
          "name": "_tokenURI",
          "type": "string"
        }
      ],
      "name": "gettokenIdByUri",
      "outputs": [
        {
          "internalType": "uint256",
          "name": "",
          "type": "uint256"
        }
      ],
      "stateMutability": "view",
      "type": "function"
    },
    {
      "inputs": [
        {
          "internalType": "uint256",
          "name": "EventID",
          "type": "uint256"
        }
      ],
      "name": "gettokenSearchEventTotal",
      "outputs": [
        {
          "internalType": "string[]",
          "name": "",
          "type": "string[]"
        }
      ],
      "stateMutability": "view",
      "type": "function"
    },
    {
      "inputs": [
        {
          "internalType": "address",
          "name": "owner",
          "type": "address"
        },
        {
          "internalType": "address",
          "name": "operator",
          "type": "address"
        }
      ],
      "name": "isApprovedForAll",
      "outputs": [
        {
          "internalType": "bool",
          "name": "",
          "type": "bool"
        }
      ],
      "stateMutability": "view",
      "type": "function"
    },
    {
      "inputs": [],
      "name": "name",
      "outputs": [
        {
          "internalType": "string",
          "name": "",
          "type": "string"
        }
      ],
      "stateMutability": "view",
      "type": "function"
    },
    {
      "inputs": [
        {
          "internalType": "uint256",
          "name": "tokenId",
          "type": "uint256"
        }
      ],
      "name": "ownerOf",
      "outputs": [
        {
          "internalType": "address",
          "name": "",
          "type": "address"
        }
      ],
      "stateMutability": "view",
      "type": "function"
    },
    {
      "inputs": [
        {
          "internalType": "address",
          "name": "from",
          "type": "address"
        },
        {
          "internalType": "address",
          "name": "to",
          "type": "address"
        },
        {
          "internalType": "uint256",
          "name": "tokenId",
          "type": "uint256"
        }
      ],
      "name": "safeTransferFrom",
      "outputs": [],
      "stateMutability": "nonpayable",
      "type": "function"
    },
    {
      "inputs": [
        {
          "internalType": "address",
          "name": "from",
          "type": "address"
        },
        {
          "internalType": "address",
          "name": "to",
          "type": "address"
        },
        {
          "internalType": "uint256",
          "name": "tokenId",
          "type": "uint256"
        },
        {
          "internalType": "bytes",
          "name": "_data",
          "type": "bytes"
        }
      ],
      "name": "safeTransferFrom",
      "outputs": [],
      "stateMutability": "nonpayable",
      "type": "function"
    },
    {
      "inputs": [
        {
          "internalType": "address",
          "name": "operator",
          "type": "address"
        },
        {
          "internalType": "bool",
          "name": "approved",
          "type": "bool"
        }
      ],
      "name": "setApprovalForAll",
      "outputs": [],
      "stateMutability": "nonpayable",
      "type": "function"
    },
    {
      "inputs": [
        {
          "internalType": "uint256",
          "name": "GrantProjectId",
          "type": "uint256"
        },
        {
          "internalType": "uint256",
          "name": "ProjectId",
          "type": "uint256"
        },
        {
          "internalType": "uint256",
          "name": "GranttId",
          "type": "uint256"
        }
      ],
      "name": "setGrantProject",
      "outputs": [],
      "stateMutability": "nonpayable",
      "type": "function"
    },
    {
      "inputs": [
        {
          "internalType": "uint256",
          "name": "GrantVoteId",
          "type": "uint256"
        },
        {
          "internalType": "string",
          "name": "Wallet",
          "type": "string"
        },
        {
          "internalType": "string",
          "name": "ProjectId",
          "type": "string"
        },
        {
          "internalType": "string",
          "name": "GranttId",
          "type": "string"
        }
      ],
      "name": "setGrantVote",
      "outputs": [],
      "stateMutability": "nonpayable",
      "type": "function"
    },
    {
      "inputs": [
        {
          "internalType": "bytes4",
          "name": "interfaceId",
          "type": "bytes4"
        }
      ],
      "name": "supportsInterface",
      "outputs": [
        {
          "internalType": "bool",
          "name": "",
          "type": "bool"
        }
      ],
      "stateMutability": "view",
      "type": "function"
    },
    {
      "inputs": [],
      "name": "symbol",
      "outputs": [
        {
          "internalType": "string",
          "name": "",
          "type": "string"
        }
      ],
      "stateMutability": "view",
      "type": "function"
    },
    {
      "inputs": [
        {
          "internalType": "uint256",
          "name": "tokenId",
          "type": "uint256"
        }
      ],
      "name": "tokenURI",
      "outputs": [
        {
          "internalType": "string",
          "name": "",
          "type": "string"
        }
      ],
      "stateMutability": "view",
      "type": "function"
    },
    {
      "inputs": [],
      "name": "totalEvent",
      "outputs": [
        {
          "internalType": "uint256",
          "name": "",
          "type": "uint256"
        }
      ],
      "stateMutability": "view",
      "type": "function"
    },
    {
      "inputs": [],
      "name": "totalGrantEvent",
      "outputs": [
        {
          "internalType": "uint256",
          "name": "",
          "type": "uint256"
        }
      ],
      "stateMutability": "view",
      "type": "function"
    },
    {
      "inputs": [],
      "name": "totalSupply",
      "outputs": [
        {
          "internalType": "uint256",
          "name": "",
          "type": "uint256"
        }
      ],
      "stateMutability": "view",
      "type": "function"
    },
    {
      "inputs": [
        {
          "internalType": "address",
          "name": "from",
          "type": "address"
        },
        {
          "internalType": "address",
          "name": "to",
          "type": "address"
        },
        {
          "internalType": "uint256",
          "name": "tokenId",
          "type": "uint256"
        }
      ],
      "name": "transferFrom",
      "outputs": [],
      "stateMutability": "nonpayable",
      "type": "function"
    }
  ],
  "bytecode": "0x60806040523480156200001157600080fd5b5060405162005731380380620057318339818101604052810190620000379190620001a3565b818181600090805190602001906200005192919062000075565b5080600190805190602001906200006a92919062000075565b5050505050620003ac565b8280546200008390620002bd565b90600052602060002090601f016020900481019282620000a75760008555620000f3565b82601f10620000c257805160ff1916838001178555620000f3565b82800160010185558215620000f3579182015b82811115620000f2578251825591602001919060010190620000d5565b5b50905062000102919062000106565b5090565b5b808211156200012157600081600090555060010162000107565b5090565b60006200013c620001368462000251565b62000228565b9050828152602081018484840111156200015b576200015a6200038c565b5b6200016884828562000287565b509392505050565b600082601f83011262000188576200018762000387565b5b81516200019a84826020860162000125565b91505092915050565b60008060408385031215620001bd57620001bc62000396565b5b600083015167ffffffffffffffff811115620001de57620001dd62000391565b5b620001ec8582860162000170565b925050602083015167ffffffffffffffff81111562000210576200020f62000391565b5b6200021e8582860162000170565b9150509250929050565b60006200023462000247565b9050620002428282620002f3565b919050565b6000604051905090565b600067ffffffffffffffff8211156200026f576200026e62000358565b5b6200027a826200039b565b9050602081019050919050565b60005b83811015620002a75780820151818401526020810190506200028a565b83811115620002b7576000848401525b50505050565b60006002820490506001821680620002d657607f821691505b60208210811415620002ed57620002ec62000329565b5b50919050565b620002fe826200039b565b810181811067ffffffffffffffff8211171562000320576200031f62000358565b5b80604052505050565b7f4e487b7100000000000000000000000000000000000000000000000000000000600052602260045260246000fd5b7f4e487b7100000000000000000000000000000000000000000000000000000000600052604160045260246000fd5b600080fd5b600080fd5b600080fd5b600080fd5b6000601f19601f8301169050919050565b61537580620003bc6000396000f3fe608060405234801561001057600080fd5b50600436106103275760003560e01c80637cedbc1e116101b8578063c08e953d11610104578063dfc5e169116100a2578063e985e9c51161007c578063e985e9c514610ab4578063eb1d234d14610ae4578063f327579414610b14578063f880eb1914610b3057610327565b8063dfc5e16914610a38578063e08033d314610a68578063e257a94c14610a8457610327565b8063cef80b3a116100de578063cef80b3a146109b0578063d45fc516146109ce578063d654e993146109fe578063dcbe2ed914610a1a57610327565b8063c08e953d14610920578063c87b56dd14610950578063cd62ca1a1461098057610327565b806396d5a73911610171578063a99bee2e1161014b578063a99bee2e14610886578063aed47961146108a4578063b10a5dfa146108d4578063b88d4fde1461090457610327565b806396d5a7391461080a578063a0fd0c6a1461083a578063a22cb4651461086a57610327565b80637cedbc1e146107225780637eadfa6a1461075257806384eb8f6814610770578063912101cf1461078c578063932a196b146107bc57806395d89b41146107ec57610327565b806335011d90116102775780634ef4e80f1161023057806353c227cc1161020a57806353c227cc1461067657806361958158146106a65780636352211e146106c257806370a08231146106f257610327565b80634ef4e80f146105e65780635154380a14610616578063523796271461064657610327565b806335011d90146104ee5780633592dd801461051e578063390532711461053a57806342842e0e1461056a578063446a92e3146105865780634eb083ec146105b657610327565b8063144cbca6116102e45780631dacc07e116102be5780631dacc07e146104565780631e65e1171461047257806323b872dd146104a257806328520ab7146104be57610327565b8063144cbca6146103fe5780631677bf081461041c57806318160ddd1461043857610327565b8063015388681461032c57806301ffc9a71461034857806306fdde0314610378578063081812fc14610396578063095ea7b3146103c65780630ae240cf146103e2575b600080fd5b61034660048036038101906103419190613e51565b610b4e565b005b610362600480360381019061035d9190613c9a565b610bc2565b60405161036f919061478f565b60405180910390f35b610380610ca4565b60405161038d91906147aa565b60405180910390f35b6103b060048036038101906103ab9190613e24565b610d36565b6040516103bd91906146c2565b60405180910390f35b6103e060048036038101906103db9190613c5a565b610dbb565b005b6103fc60048036038101906103f79190613f38565b610ed3565b005b610406610f16565b60405161041391906149ac565b60405180910390f35b61043660048036038101906104319190613e51565b610f1c565b005b610440610f48565b60405161044d91906149ac565b60405180910390f35b610470600480360381019061046b9190613ff3565b610f52565b005b61048c60048036038101906104879190613cf4565b61107d565b604051610499919061474b565b60405180910390f35b6104bc60048036038101906104b79190613ad5565b6112a1565b005b6104d860048036038101906104d39190613e51565b611301565b6040516104e591906149ac565b60405180910390f35b61050860048036038101906105039190613beb565b6113da565b60405161051591906149ac565b60405180910390f35b61053860048036038101906105339190614102565b61143d565b005b610554600480360381019061054f91906140c2565b611481565b604051610561919061478f565b60405180910390f35b610584600480360381019061057f9190613ad5565b61151d565b005b6105a0600480360381019061059b9190613e24565b61153d565b6040516105ad91906147aa565b60405180910390f35b6105d060048036038101906105cb9190613e24565b6115e2565b6040516105dd91906147aa565b60405180910390f35b61060060048036038101906105fb91906140c2565b611687565b60405161060d91906149ac565b60405180910390f35b610630600480360381019061062b9190613e24565b6116b9565b60405161063d919061474b565b60405180910390f35b610660600480360381019061065b9190613cf4565b611869565b60405161066d91906149ac565b60405180910390f35b610690600480360381019061068b9190613e24565b611899565b60405161069d91906147aa565b60405180910390f35b6106c060048036038101906106bb9190613ead565b611939565b005b6106dc60048036038101906106d79190613e24565b6119d2565b6040516106e991906146c2565b60405180910390f35b61070c60048036038101906107079190613a68565b611a84565b60405161071991906149ac565b60405180910390f35b61073c60048036038101906107379190613e24565b611b3c565b60405161074991906147aa565b60405180910390f35b61075a611bf5565b60405161076791906149ac565b60405180910390f35b61078a60048036038101906107859190613e51565b611bff565b005b6107a660048036038101906107a191906140c2565b611c2b565b6040516107b3919061474b565b60405180910390f35b6107d660048036038101906107d19190613cf4565b611f0a565b6040516107e391906149ac565b60405180910390f35b6107f4611f79565b60405161080191906147aa565b60405180910390f35b610824600480360381019061081f9190613e24565b61200b565b604051610831919061476d565b60405180910390f35b610854600480360381019061084f9190613e24565b61216d565b6040516108619190614729565b60405180910390f35b610884600480360381019061087f9190613bab565b61224d565b005b61088e612263565b60405161089b91906149ac565b60405180910390f35b6108be60048036038101906108b99190613e24565b612269565b6040516108cb919061474b565b60405180910390f35b6108ee60048036038101906108e991906140c2565b612419565b6040516108fb91906147aa565b60405180910390f35b61091e60048036038101906109199190613b28565b6124c9565b005b61093a60048036038101906109359190613db5565b61252b565b60405161094791906149ac565b60405180910390f35b61096a60048036038101906109659190613e24565b61256f565b60405161097791906147aa565b60405180910390f35b61099a60048036038101906109959190613cf4565b61265c565b6040516109a791906149ac565b60405180910390f35b6109b86126df565b6040516109c591906149ac565b60405180910390f35b6109e860048036038101906109e39190613cf4565b6126e5565b6040516109f591906149ac565b60405180910390f35b610a186004803603810190610a139190614102565b612754565b005b610a22612798565b604051610a2f91906149ac565b60405180910390f35b610a526004803603810190610a4d9190613e24565b61279e565b604051610a5f91906147aa565b60405180910390f35b610a826004803603810190610a7d9190613e51565b61283e565b005b610a9e6004803603810190610a999190613d3d565b61286a565b604051610aab91906149ac565b60405180910390f35b610ace6004803603810190610ac99190613a95565b6128dd565b604051610adb919061478f565b60405180910390f35b610afe6004803603810190610af99190613e24565b612971565b604051610b0b919061474b565b60405180910390f35b610b2e6004803603810190610b299190614171565b612b21565b005b610b38612b5d565b604051610b4591906149ac565b60405180910390f35b610b5782612b67565b610b96576040517f08c379a0000000000000000000000000000000000000000000000000000000008152600401610b8d9061492c565b60405180910390fd5b80601560008481526020019081526020016000209080519060200190610bbd92919061370b565b505050565b60007f80ac58cd000000000000000000000000000000000000000000000000000000007bffffffffffffffffffffffffffffffffffffffffffffffffffffffff1916827bffffffffffffffffffffffffffffffffffffffffffffffffffffffff19161480610c8d57507f5b5e139f000000000000000000000000000000000000000000000000000000007bffffffffffffffffffffffffffffffffffffffffffffffffffffffff1916827bffffffffffffffffffffffffffffffffffffffffffffffffffffffff1916145b80610c9d5750610c9c82612bd3565b5b9050919050565b606060008054610cb390614cc7565b80601f0160208091040260200160405190810160405280929190818152602001828054610cdf90614cc7565b8015610d2c5780601f10610d0157610100808354040283529160200191610d2c565b820191906000526020600020905b815481529060010190602001808311610d0f57829003601f168201915b5050505050905090565b6000610d4182612b67565b610d80576040517f08c379a0000000000000000000000000000000000000000000000000000000008152600401610d779061490c565b60405180910390fd5b6004600083815260200190815260200160002060009054906101000a900473ffffffffffffffffffffffffffffffffffffffff169050919050565b6000610dc6826119d2565b90508073ffffffffffffffffffffffffffffffffffffffff168373ffffffffffffffffffffffffffffffffffffffff161415610e37576040517f08c379a0000000000000000000000000000000000000000000000000000000008152600401610e2e9061496c565b60405180910390fd5b8073ffffffffffffffffffffffffffffffffffffffff16610e56612c3d565b73ffffffffffffffffffffffffffffffffffffffff161480610e855750610e8481610e7f612c3d565b6128dd565b5b610ec4576040517f08c379a0000000000000000000000000000000000000000000000000000000008152600401610ebb9061488c565b60405180910390fd5b610ece8383612c45565b505050565b60405180606001604052808281526020018381526020018481525060106000868152602001908152602001600020906003610f0f929190613791565b5050505050565b600e5481565b80601960008481526020019081526020016000209080519060200190610f4392919061370b565b505050565b6000600654905090565b6000610ff983601560008981526020019081526020016000208054610f7690614cc7565b80601f0160208091040260200160405190810160405280929190818152602001828054610fa290614cc7565b8015610fef5780601f10610fc457610100808354040283529160200191610fef565b820191906000526020600020905b815481529060010190602001808311610fd257829003601f168201915b5050505050611301565b90508360156000888152602001908152602001600020908051906020019061102292919061370b565b5061102e81848661143d565b6110388383610f1c565b611045600d548787612754565b600d600081548092919061105890614d2a565b91905055506007600081548092919061107090614d2a565b9190505550505050505050565b606060008060005b6008548110156110fb578480519060200120601660008381526020019081526020016000206000600281106110bd576110bc614e31565b5b016040516110cb91906146ab565b604051809103902014156110e85782806110e490614d2a565b9350505b80806110f390614d2a565b915050611085565b5060008267ffffffffffffffff81111561111857611117614e60565b5b60405190808252806020026020018201604052801561114b57816020015b60608152602001906001900390816111365790505b50905060005b6008548110156112955785805190602001206016600083815260200190815260200160002060006002811061118957611188614e31565b5b0160405161119791906146ab565b6040518091039020141561128257601660008281526020019081526020016000206001600281106111cb576111ca614e31565b5b0180546111d790614cc7565b80601f016020809104026020016040519081016040528092919081815260200182805461120390614cc7565b80156112505780601f1061122557610100808354040283529160200191611250565b820191906000526020600020905b81548152906001019060200180831161123357829003601f168201915b505050505082848151811061126857611267614e31565b5b6020026020010181905250828061127e90614d2a565b9350505b808061128d90614d2a565b915050611151565b50809350505050919050565b6112b26112ac612c3d565b82612cfe565b6112f1576040517f08c379a00000000000000000000000000000000000000000000000000000000081526004016112e89061498c565b60405180910390fd5b6112fc838383612ddc565b505050565b600080600090505b600c548110156113ce5761131c84613043565b80519060200120600f600083815260200190815260200160002060006002811061134957611348614e31565b5b0160405161135791906146ab565b60405180910390201480156113ad57508280519060200120600f600083815260200190815260200160002060016002811061139557611394614e31565b5b016040516113a391906146ab565b6040518091039020145b156113bb57809150506113d4565b80806113c690614d2a565b915050611309565b50600090505b92915050565b60006113e8846006546131a4565b6113f460065484610b4e565b611401600c54838561143d565b6006600081548092919061141490614d2a565b9190505550600c600081548092919061142c90614d2a565b919050555060065490509392505050565b604051806040016040528061145184613043565b815260200182815250600f600085815260200190815260200160002090600261147b9291906137e4565b50505050565b600080600090505b600a548110156115115783601160008381526020019081526020016000206000600281106114ba576114b9614e31565b5b01541480156114ef575082601160008381526020019081526020016000206001600281106114eb576114ea614e31565b5b0154145b156114fe576001915050611517565b808061150990614d2a565b915050611489565b50600090505b92915050565b611538838383604051806020016040528060008152506124c9565b505050565b606060146000838152602001908152602001600020805461155d90614cc7565b80601f016020809104026020016040519081016040528092919081815260200182805461158990614cc7565b80156115d65780601f106115ab576101008083540402835291602001916115d6565b820191906000526020600020905b8154815290600101906020018083116115b957829003601f168201915b50505050509050919050565b606060196000838152602001908152602001600020805461160290614cc7565b80601f016020809104026020016040519081016040528092919081815260200182805461162e90614cc7565b801561167b5780601f106116505761010080835404028352916020019161167b565b820191906000526020600020905b81548152906001019060200180831161165e57829003601f168201915b50505050509050919050565b6000611696600a548484612b21565b600a60008154809291906116a990614d2a565b9190505550600a54905092915050565b60606000600a67ffffffffffffffff8111156116d8576116d7614e60565b5b60405190808252806020026020018201604052801561170b57816020015b60608152602001906001900390816116f65790505b5090506000805b600d5481101561185e5761172585613043565b805190602001206012600083815260200190815260200160002060006002811061175257611751614e31565b5b0160405161176091906146ab565b6040518091039020141561184b576012600082815260200190815260200160002060016002811061179457611793614e31565b5b0180546117a090614cc7565b80601f01602080910402602001604051908101604052809291908181526020018280546117cc90614cc7565b80156118195780601f106117ee57610100808354040283529160200191611819565b820191906000526020600020905b8154815290600101906020018083116117fc57829003601f168201915b505050505083838151811061183157611830614e31565b5b6020026020010181905250818061184790614d2a565b9250505b808061185690614d2a565b915050611712565b508192505050919050565b600061187760095483611bff565b6009600081548092919061188a90614d2a565b91905055506009549050919050565b601860205280600052604060002060009150905080546118b890614cc7565b80601f01602080910402602001604051908101604052809291908181526020018280546118e490614cc7565b80156119315780601f1061190657610100808354040283529160200191611931565b820191906000526020600020905b81548152906001019060200180831161191457829003601f168201915b505050505081565b6040518060400160405280838152602001828152506016600085815260200190815260200160002090600261196f9291906137e4565b506040518060400160405280600181526020017f30000000000000000000000000000000000000000000000000000000000000008152506019600085815260200190815260200160002090805190602001906119cc92919061370b565b50505050565b6000806002600084815260200190815260200160002060009054906101000a900473ffffffffffffffffffffffffffffffffffffffff169050600073ffffffffffffffffffffffffffffffffffffffff168173ffffffffffffffffffffffffffffffffffffffff161415611a7b576040517f08c379a0000000000000000000000000000000000000000000000000000000008152600401611a72906148cc565b60405180910390fd5b80915050919050565b60008073ffffffffffffffffffffffffffffffffffffffff168273ffffffffffffffffffffffffffffffffffffffff161415611af5576040517f08c379a0000000000000000000000000000000000000000000000000000000008152600401611aec906148ac565b60405180910390fd5b600360008373ffffffffffffffffffffffffffffffffffffffff1673ffffffffffffffffffffffffffffffffffffffff168152602001908152602001600020549050919050565b606060136000838152602001908152602001600020600060028110611b6457611b63614e31565b5b018054611b7090614cc7565b80601f0160208091040260200160405190810160405280929190818152602001828054611b9c90614cc7565b8015611be95780601f10611bbe57610100808354040283529160200191611be9565b820191906000526020600020905b815481529060010190602001808311611bcc57829003601f168201915b50505050509050919050565b6000600854905090565b80601760008481526020019081526020016000209080519060200190611c2692919061370b565b505050565b606060008060005b600b54811015611d0657611c4686613043565b8051906020012060106000838152602001908152602001600020600060038110611c7357611c72614e31565b5b01604051611c8191906146ab565b6040518091039020148015611cdf5750611c9a85613043565b8051906020012060106000838152602001908152602001600020600160038110611cc757611cc6614e31565b5b01604051611cd591906146ab565b6040518091039020145b15611cf3578280611cef90614d2a565b9350505b8080611cfe90614d2a565b915050611c33565b5060008267ffffffffffffffff811115611d2357611d22614e60565b5b604051908082528060200260200182016040528015611d5657816020015b6060815260200190600190039081611d415790505b50905060005b600b54811015611efd57611d6f87613043565b8051906020012060106000838152602001908152602001600020600060038110611d9c57611d9b614e31565b5b01604051611daa91906146ab565b6040518091039020148015611e085750611dc386613043565b8051906020012060106000838152602001908152602001600020600160038110611df057611def614e31565b5b01604051611dfe91906146ab565b6040518091039020145b15611eea5760106000828152602001908152602001600020600260038110611e3357611e32614e31565b5b018054611e3f90614cc7565b80601f0160208091040260200160405190810160405280929190818152602001828054611e6b90614cc7565b8015611eb85780601f10611e8d57610100808354040283529160200191611eb8565b820191906000526020600020905b815481529060010190602001808311611e9b57829003601f168201915b5050505050828481518110611ed057611ecf614e31565b5b60200260200101819052508280611ee690614d2a565b9350505b8080611ef590614d2a565b915050611d5c565b5080935050505092915050565b600080600090505b600654811015611f6e57828051906020012060156000838152602001908152602001600020604051611f4491906146ab565b60405180910390201415611f5b5780915050611f74565b8080611f6690614d2a565b915050611f12565b50600090505b919050565b606060018054611f8890614cc7565b80601f0160208091040260200160405190810160405280929190818152602001828054611fb490614cc7565b80156120015780601f10611fd657610100808354040283529160200191612001565b820191906000526020600020905b815481529060010190602001808311611fe457829003601f168201915b5050505050905090565b606060008060005b600a5481101561206e57846011600083815260200190815260200160002060006002811061204457612043614e31565b5b0154141561205b57828061205790614d2a565b9350505b808061206690614d2a565b915050612013565b5060008267ffffffffffffffff81111561208b5761208a614e60565b5b6040519080825280602002602001820160405280156120b95781602001602082028036833780820191505090505b50905060005b600a548110156121615785601160008381526020019081526020016000206000600281106120f0576120ef614e31565b5b0154141561214e576011600082815260200190815260200160002060016002811061211e5761211d614e31565b5b015482848151811061213357612132614e31565b5b602002602001018181525050828061214a90614d2a565b9350505b808061215990614d2a565b9150506120bf565b50809350505050919050565b612175613837565b60166000838152602001908152602001600020600280602002604051908101604052809291906000905b828210156122425783820180546121b590614cc7565b80601f01602080910402602001604051908101604052809291908181526020018280546121e190614cc7565b801561222e5780601f106122035761010080835404028352916020019161222e565b820191906000526020600020905b81548152906001019060200180831161221157829003601f168201915b50505050508152602001906001019061219f565b505050509050919050565b61225f612258612c3d565b838361337e565b5050565b60095481565b60606000600a67ffffffffffffffff81111561228857612287614e60565b5b6040519080825280602002602001820160405280156122bb57816020015b60608152602001906001900390816122a65790505b5090506000805b600d5481101561240e576122d585613043565b805190602001206012600083815260200190815260200160002060006002811061230257612301614e31565b5b0160405161231091906146ab565b604051809103902014156123fb576012600082815260200190815260200160002060016002811061234457612343614e31565b5b01805461235090614cc7565b80601f016020809104026020016040519081016040528092919081815260200182805461237c90614cc7565b80156123c95780601f1061239e576101008083540402835291602001916123c9565b820191906000526020600020905b8154815290600101906020018083116123ac57829003601f168201915b50505050508383815181106123e1576123e0614e31565b5b602002602001018190525081806123f790614d2a565b9250505b808061240690614d2a565b9150506122c2565b508192505050919050565b6013602052816000526040600020816002811061243557600080fd5b0160009150915050805461244890614cc7565b80601f016020809104026020016040519081016040528092919081815260200182805461247490614cc7565b80156124c15780601f10612496576101008083540402835291602001916124c1565b820191906000526020600020905b8154815290600101906020018083116124a457829003601f168201915b505050505081565b6124da6124d4612c3d565b83612cfe565b612519576040517f08c379a00000000000000000000000000000000000000000000000000000000081526004016125109061498c565b60405180910390fd5b612525848484846134eb565b50505050565b600061254b600b548561253d86613043565b61254686613043565b610ed3565b600b600081548092919061255e90614d2a565b9190505550600b5490509392505050565b606061257a82612b67565b6125b9576040517f08c379a00000000000000000000000000000000000000000000000000000000081526004016125b09061494c565b60405180910390fd5b6015600083815260200190815260200160002080546125d790614cc7565b80601f016020809104026020016040519081016040528092919081815260200182805461260390614cc7565b80156126505780601f1061262557610100808354040283529160200191612650565b820191906000526020600020905b81548152906001019060200180831161263357829003601f168201915b50505050509050919050565b600080600090505b6008548110156126d45782805190602001206016600083815260200190815260200160002060016002811061269c5761269b614e31565b5b016040516126aa91906146ab565b604051809103902014156126c157809150506126da565b80806126cc90614d2a565b915050612664565b50600090505b919050565b600a5481565b600080600090505b6007548110156127495782805190602001206014600083815260200190815260200160002060405161271f91906146ab565b60405180910390201415612736578091505061274f565b808061274190614d2a565b9150506126ed565b50600090505b919050565b604051806040016040528061276884613043565b815260200182815250601260008581526020019081526020016000209060026127929291906137e4565b50505050565b600b5481565b601760205280600052604060002060009150905080546127bd90614cc7565b80601f01602080910402602001604051908101604052809291908181526020018280546127e990614cc7565b80156128365780601f1061280b57610100808354040283529160200191612836565b820191906000526020600020905b81548152906001019060200180831161281957829003601f168201915b505050505081565b8060146000848152602001908152602001600020908051906020019061286592919061370b565b505050565b60006128796008548484611939565b6128ba6008546040518060400160405280600181526020017f3000000000000000000000000000000000000000000000000000000000000000815250610f1c565b600860008154809291906128cd90614d2a565b9190505550600854905092915050565b6000600560008473ffffffffffffffffffffffffffffffffffffffff1673ffffffffffffffffffffffffffffffffffffffff16815260200190815260200160002060008373ffffffffffffffffffffffffffffffffffffffff1673ffffffffffffffffffffffffffffffffffffffff16815260200190815260200160002060009054906101000a900460ff16905092915050565b60606000600a67ffffffffffffffff8111156129905761298f614e60565b5b6040519080825280602002602001820160405280156129c357816020015b60608152602001906001900390816129ae5790505b5090506000805b600c54811015612b16576129dd85613043565b80519060200120600f6000838152602001908152602001600020600060028110612a0a57612a09614e31565b5b01604051612a1891906146ab565b60405180910390201415612b0357600f6000828152602001908152602001600020600160028110612a4c57612a4b614e31565b5b018054612a5890614cc7565b80601f0160208091040260200160405190810160405280929190818152602001828054612a8490614cc7565b8015612ad15780601f10612aa657610100808354040283529160200191612ad1565b820191906000526020600020905b815481529060010190602001808311612ab457829003601f168201915b5050505050838381518110612ae957612ae8614e31565b5b60200260200101819052508180612aff90614d2a565b9250505b8080612b0e90614d2a565b9150506129ca565b508192505050919050565b60405180604001604052808281526020018381525060116000858152602001908152602001600020906002612b5792919061385e565b50505050565b6000600a54905090565b60008073ffffffffffffffffffffffffffffffffffffffff166002600084815260200190815260200160002060009054906101000a900473ffffffffffffffffffffffffffffffffffffffff1673ffffffffffffffffffffffffffffffffffffffff1614159050919050565b60007f01ffc9a7000000000000000000000000000000000000000000000000000000007bffffffffffffffffffffffffffffffffffffffffffffffffffffffff1916827bffffffffffffffffffffffffffffffffffffffffffffffffffffffff1916149050919050565b600033905090565b816004600083815260200190815260200160002060006101000a81548173ffffffffffffffffffffffffffffffffffffffff021916908373ffffffffffffffffffffffffffffffffffffffff160217905550808273ffffffffffffffffffffffffffffffffffffffff16612cb8836119d2565b73ffffffffffffffffffffffffffffffffffffffff167f8c5be1e5ebec7d5bd14f71427d1e84f3dd0314c0f7b2291e5b200ac8c7c3b92560405160405180910390a45050565b6000612d0982612b67565b612d48576040517f08c379a0000000000000000000000000000000000000000000000000000000008152600401612d3f9061486c565b60405180910390fd5b6000612d53836119d2565b90508073ffffffffffffffffffffffffffffffffffffffff168473ffffffffffffffffffffffffffffffffffffffff161480612d955750612d9481856128dd565b5b80612dd357508373ffffffffffffffffffffffffffffffffffffffff16612dbb84610d36565b73ffffffffffffffffffffffffffffffffffffffff16145b91505092915050565b8273ffffffffffffffffffffffffffffffffffffffff16612dfc826119d2565b73ffffffffffffffffffffffffffffffffffffffff1614612e52576040517f08c379a0000000000000000000000000000000000000000000000000000000008152600401612e49906147ec565b60405180910390fd5b600073ffffffffffffffffffffffffffffffffffffffff168273ffffffffffffffffffffffffffffffffffffffff161415612ec2576040517f08c379a0000000000000000000000000000000000000000000000000000000008152600401612eb99061482c565b60405180910390fd5b612ecd838383613547565b612ed8600082612c45565b6001600360008573ffffffffffffffffffffffffffffffffffffffff1673ffffffffffffffffffffffffffffffffffffffff1681526020019081526020016000206000828254612f289190614bdd565b925050819055506001600360008473ffffffffffffffffffffffffffffffffffffffff1673ffffffffffffffffffffffffffffffffffffffff1681526020019081526020016000206000828254612f7f9190614b56565b92505081905550816002600083815260200190815260200160002060006101000a81548173ffffffffffffffffffffffffffffffffffffffff021916908373ffffffffffffffffffffffffffffffffffffffff160217905550808273ffffffffffffffffffffffffffffffffffffffff168473ffffffffffffffffffffffffffffffffffffffff167fddf252ad1be2c89b69c2b068fc378daa952ba7f163c4a11628f55a4df523b3ef60405160405180910390a461303e83838361354c565b505050565b6060600082141561308b576040518060400160405280600181526020017f3000000000000000000000000000000000000000000000000000000000000000815250905061319f565b600082905060005b600082146130bd5780806130a690614d2a565b915050600a826130b69190614bac565b9150613093565b60008167ffffffffffffffff8111156130d9576130d8614e60565b5b6040519080825280601f01601f19166020018201604052801561310b5781602001600182028036833780820191505090505b5090505b60008514613198576001826131249190614bdd565b9150600a856131339190614d73565b603061313f9190614b56565b60f81b81838151811061315557613154614e31565b5b60200101907effffffffffffffffffffffffffffffffffffffffffffffffffffffffffffff1916908160001a905350600a856131919190614bac565b945061310f565b8093505050505b919050565b600073ffffffffffffffffffffffffffffffffffffffff168273ffffffffffffffffffffffffffffffffffffffff161415613214576040517f08c379a000000000000000000000000000000000000000000000000000000000815260040161320b906148ec565b60405180910390fd5b61321d81612b67565b1561325d576040517f08c379a00000000000000000000000000000000000000000000000000000000081526004016132549061480c565b60405180910390fd5b61326960008383613547565b6001600360008473ffffffffffffffffffffffffffffffffffffffff1673ffffffffffffffffffffffffffffffffffffffff16815260200190815260200160002060008282546132b99190614b56565b92505081905550816002600083815260200190815260200160002060006101000a81548173ffffffffffffffffffffffffffffffffffffffff021916908373ffffffffffffffffffffffffffffffffffffffff160217905550808273ffffffffffffffffffffffffffffffffffffffff16600073ffffffffffffffffffffffffffffffffffffffff167fddf252ad1be2c89b69c2b068fc378daa952ba7f163c4a11628f55a4df523b3ef60405160405180910390a461337a6000838361354c565b5050565b8173ffffffffffffffffffffffffffffffffffffffff168373ffffffffffffffffffffffffffffffffffffffff1614156133ed576040517f08c379a00000000000000000000000000000000000000000000000000000000081526004016133e49061484c565b60405180910390fd5b80600560008573ffffffffffffffffffffffffffffffffffffffff1673ffffffffffffffffffffffffffffffffffffffff16815260200190815260200160002060008473ffffffffffffffffffffffffffffffffffffffff1673ffffffffffffffffffffffffffffffffffffffff16815260200190815260200160002060006101000a81548160ff0219169083151502179055508173ffffffffffffffffffffffffffffffffffffffff168373ffffffffffffffffffffffffffffffffffffffff167f17307eab39ab6107e8899845ad3d59bd9653f200f220920489ca2b5937696c31836040516134de919061478f565b60405180910390a3505050565b6134f6848484612ddc565b61350284848484613551565b613541576040517f08c379a0000000000000000000000000000000000000000000000000000000008152600401613538906147cc565b60405180910390fd5b50505050565b505050565b505050565b60006135728473ffffffffffffffffffffffffffffffffffffffff166136e8565b156136db578373ffffffffffffffffffffffffffffffffffffffff1663150b7a0261359b612c3d565b8786866040518563ffffffff1660e01b81526004016135bd94939291906146dd565b602060405180830381600087803b1580156135d757600080fd5b505af192505050801561360857506040513d601f19601f820116820180604052508101906136059190613cc7565b60015b61368b573d8060008114613638576040519150601f19603f3d011682016040523d82523d6000602084013e61363d565b606091505b50600081511415613683576040517f08c379a000000000000000000000000000000000000000000000000000000000815260040161367a906147cc565b60405180910390fd5b805181602001fd5b63150b7a0260e01b7bffffffffffffffffffffffffffffffffffffffffffffffffffffffff1916817bffffffffffffffffffffffffffffffffffffffffffffffffffffffff1916149150506136e0565b600190505b949350505050565b6000808273ffffffffffffffffffffffffffffffffffffffff163b119050919050565b82805461371790614cc7565b90600052602060002090601f0160209004810192826137395760008555613780565b82601f1061375257805160ff1916838001178555613780565b82800160010185558215613780579182015b8281111561377f578251825591602001919060010190613764565b5b50905061378d919061389e565b5090565b82600381019282156137d3579160200282015b828111156137d25782518290805190602001906137c292919061370b565b50916020019190600101906137a4565b5b5090506137e091906138bb565b5090565b8260028101928215613826579160200282015b8281111561382557825182908051906020019061381592919061370b565b50916020019190600101906137f7565b5b50905061383391906138bb565b5090565b60405180604001604052806002905b60608152602001906001900390816138465790505090565b826002810192821561388d579160200282015b8281111561388c578251825591602001919060010190613871565b5b50905061389a919061389e565b5090565b5b808211156138b757600081600090555060010161389f565b5090565b5b808211156138db57600081816138d291906138df565b506001016138bc565b5090565b5080546138eb90614cc7565b6000825580601f106138fd575061391c565b601f01602090049060005260206000209081019061391b919061389e565b5b50565b600061393261392d846149ec565b6149c7565b90508281526020810184848401111561394e5761394d614e94565b5b613959848285614c85565b509392505050565b600061397461396f84614a1d565b6149c7565b9050828152602081018484840111156139905761398f614e94565b5b61399b848285614c85565b509392505050565b6000813590506139b2816152e3565b92915050565b6000813590506139c7816152fa565b92915050565b6000813590506139dc81615311565b92915050565b6000815190506139f181615311565b92915050565b600082601f830112613a0c57613a0b614e8f565b5b8135613a1c84826020860161391f565b91505092915050565b600082601f830112613a3a57613a39614e8f565b5b8135613a4a848260208601613961565b91505092915050565b600081359050613a6281615328565b92915050565b600060208284031215613a7e57613a7d614e9e565b5b6000613a8c848285016139a3565b91505092915050565b60008060408385031215613aac57613aab614e9e565b5b6000613aba858286016139a3565b9250506020613acb858286016139a3565b9150509250929050565b600080600060608486031215613aee57613aed614e9e565b5b6000613afc868287016139a3565b9350506020613b0d868287016139a3565b9250506040613b1e86828701613a53565b9150509250925092565b60008060008060808587031215613b4257613b41614e9e565b5b6000613b50878288016139a3565b9450506020613b61878288016139a3565b9350506040613b7287828801613a53565b925050606085013567ffffffffffffffff811115613b9357613b92614e99565b5b613b9f878288016139f7565b91505092959194509250565b60008060408385031215613bc257613bc1614e9e565b5b6000613bd0858286016139a3565b9250506020613be1858286016139b8565b9150509250929050565b600080600060608486031215613c0457613c03614e9e565b5b6000613c12868287016139a3565b935050602084013567ffffffffffffffff811115613c3357613c32614e99565b5b613c3f86828701613a25565b9250506040613c5086828701613a53565b9150509250925092565b60008060408385031215613c7157613c70614e9e565b5b6000613c7f858286016139a3565b9250506020613c9085828601613a53565b9150509250929050565b600060208284031215613cb057613caf614e9e565b5b6000613cbe848285016139cd565b91505092915050565b600060208284031215613cdd57613cdc614e9e565b5b6000613ceb848285016139e2565b91505092915050565b600060208284031215613d0a57613d09614e9e565b5b600082013567ffffffffffffffff811115613d2857613d27614e99565b5b613d3484828501613a25565b91505092915050565b60008060408385031215613d5457613d53614e9e565b5b600083013567ffffffffffffffff811115613d7257613d71614e99565b5b613d7e85828601613a25565b925050602083013567ffffffffffffffff811115613d9f57613d9e614e99565b5b613dab85828601613a25565b9150509250929050565b600080600060608486031215613dce57613dcd614e9e565b5b600084013567ffffffffffffffff811115613dec57613deb614e99565b5b613df886828701613a25565b9350506020613e0986828701613a53565b9250506040613e1a86828701613a53565b9150509250925092565b600060208284031215613e3a57613e39614e9e565b5b6000613e4884828501613a53565b91505092915050565b60008060408385031215613e6857613e67614e9e565b5b6000613e7685828601613a53565b925050602083013567ffffffffffffffff811115613e9757613e96614e99565b5b613ea385828601613a25565b9150509250929050565b600080600060608486031215613ec657613ec5614e9e565b5b6000613ed486828701613a53565b935050602084013567ffffffffffffffff811115613ef557613ef4614e99565b5b613f0186828701613a25565b925050604084013567ffffffffffffffff811115613f2257613f21614e99565b5b613f2e86828701613a25565b9150509250925092565b60008060008060808587031215613f5257613f51614e9e565b5b6000613f6087828801613a53565b945050602085013567ffffffffffffffff811115613f8157613f80614e99565b5b613f8d87828801613a25565b935050604085013567ffffffffffffffff811115613fae57613fad614e99565b5b613fba87828801613a25565b925050606085013567ffffffffffffffff811115613fdb57613fda614e99565b5b613fe787828801613a25565b91505092959194509250565b600080600080600060a0868803121561400f5761400e614e9e565b5b600061401d88828901613a53565b955050602086013567ffffffffffffffff81111561403e5761403d614e99565b5b61404a88828901613a25565b945050604086013567ffffffffffffffff81111561406b5761406a614e99565b5b61407788828901613a25565b935050606061408888828901613a53565b925050608086013567ffffffffffffffff8111156140a9576140a8614e99565b5b6140b588828901613a25565b9150509295509295909350565b600080604083850312156140d9576140d8614e9e565b5b60006140e785828601613a53565b92505060206140f885828601613a53565b9150509250929050565b60008060006060848603121561411b5761411a614e9e565b5b600061412986828701613a53565b935050602061413a86828701613a53565b925050604084013567ffffffffffffffff81111561415b5761415a614e99565b5b61416786828701613a25565b9150509250925092565b60008060006060848603121561418a57614189614e9e565b5b600061419886828701613a53565b93505060206141a986828701613a53565b92505060406141ba86828701613a53565b9150509250925092565b60006141d0838361440e565b905092915050565b60006141e4838361468d565b60208301905092915050565b6141f981614c11565b82525050565b600061420a82614a8d565b6142148185614aeb565b93508360208202850161422685614a4e565b8060005b85811015614262578484038952815161424385826141c4565b945061424e83614ac4565b925060208a0199505060018101905061422a565b50829750879550505050505092915050565b600061427f82614a98565b6142898185614af6565b93508360208202850161429b85614a58565b8060005b858110156142d757848403895281516142b885826141c4565b94506142c383614ad1565b925060208a0199505060018101905061429f565b50829750879550505050505092915050565b60006142f482614aa3565b6142fe8185614b07565b935061430983614a68565b8060005b8381101561433a57815161432188826141d8565b975061432c83614ade565b92505060018101905061430d565b5085935050505092915050565b61435081614c23565b82525050565b600061436182614aae565b61436b8185614b18565b935061437b818560208601614c94565b61438481614ea3565b840191505092915050565b6000815461439c81614cc7565b6143a68186614b29565b945060018216600081146143c157600181146143d257614405565b60ff19831686528186019350614405565b6143db85614a78565b60005b838110156143fd578154818901526001820191506020810190506143de565b838801955050505b50505092915050565b600061441982614ab9565b6144238185614b34565b9350614433818560208601614c94565b61443c81614ea3565b840191505092915050565b600061445282614ab9565b61445c8185614b45565b935061446c818560208601614c94565b61447581614ea3565b840191505092915050565b600061448d603283614b45565b915061449882614eb4565b604082019050919050565b60006144b0602583614b45565b91506144bb82614f03565b604082019050919050565b60006144d3601c83614b45565b91506144de82614f52565b602082019050919050565b60006144f6602483614b45565b915061450182614f7b565b604082019050919050565b6000614519601983614b45565b915061452482614fca565b602082019050919050565b600061453c602c83614b45565b915061454782614ff3565b604082019050919050565b600061455f603883614b45565b915061456a82615042565b604082019050919050565b6000614582602a83614b45565b915061458d82615091565b604082019050919050565b60006145a5602983614b45565b91506145b0826150e0565b604082019050919050565b60006145c8602083614b45565b91506145d38261512f565b602082019050919050565b60006145eb602c83614b45565b91506145f682615158565b604082019050919050565b600061460e602c83614b45565b9150614619826151a7565b604082019050919050565b6000614631602f83614b45565b915061463c826151f6565b604082019050919050565b6000614654602183614b45565b915061465f82615245565b604082019050919050565b6000614677603183614b45565b915061468282615294565b604082019050919050565b61469681614c7b565b82525050565b6146a581614c7b565b82525050565b60006146b7828461438f565b915081905092915050565b60006020820190506146d760008301846141f0565b92915050565b60006080820190506146f260008301876141f0565b6146ff60208301866141f0565b61470c604083018561469c565b818103606083015261471e8184614356565b905095945050505050565b6000602082019050818103600083015261474381846141ff565b905092915050565b600060208201905081810360008301526147658184614274565b905092915050565b6000602082019050818103600083015261478781846142e9565b905092915050565b60006020820190506147a46000830184614347565b92915050565b600060208201905081810360008301526147c48184614447565b905092915050565b600060208201905081810360008301526147e581614480565b9050919050565b60006020820190508181036000830152614805816144a3565b9050919050565b60006020820190508181036000830152614825816144c6565b9050919050565b60006020820190508181036000830152614845816144e9565b9050919050565b600060208201905081810360008301526148658161450c565b9050919050565b600060208201905081810360008301526148858161452f565b9050919050565b600060208201905081810360008301526148a581614552565b9050919050565b600060208201905081810360008301526148c581614575565b9050919050565b600060208201905081810360008301526148e581614598565b9050919050565b60006020820190508181036000830152614905816145bb565b9050919050565b60006020820190508181036000830152614925816145de565b9050919050565b6000602082019050818103600083015261494581614601565b9050919050565b6000602082019050818103600083015261496581614624565b9050919050565b6000602082019050818103600083015261498581614647565b9050919050565b600060208201905081810360008301526149a58161466a565b9050919050565b60006020820190506149c1600083018461469c565b92915050565b60006149d16149e2565b90506149dd8282614cf9565b919050565b6000604051905090565b600067ffffffffffffffff821115614a0757614a06614e60565b5b614a1082614ea3565b9050602081019050919050565b600067ffffffffffffffff821115614a3857614a37614e60565b5b614a4182614ea3565b9050602081019050919050565b6000819050919050565b6000819050602082019050919050565b6000819050602082019050919050565b60008190508160005260206000209050919050565b600060029050919050565b600081519050919050565b600081519050919050565b600081519050919050565b600081519050919050565b6000602082019050919050565b6000602082019050919050565b6000602082019050919050565b600081905092915050565b600082825260208201905092915050565b600082825260208201905092915050565b600082825260208201905092915050565b600081905092915050565b600082825260208201905092915050565b600082825260208201905092915050565b6000614b6182614c7b565b9150614b6c83614c7b565b9250827fffffffffffffffffffffffffffffffffffffffffffffffffffffffffffffffff03821115614ba157614ba0614da4565b5b828201905092915050565b6000614bb782614c7b565b9150614bc283614c7b565b925082614bd257614bd1614dd3565b5b828204905092915050565b6000614be882614c7b565b9150614bf383614c7b565b925082821015614c0657614c05614da4565b5b828203905092915050565b6000614c1c82614c5b565b9050919050565b60008115159050919050565b60007fffffffff0000000000000000000000000000000000000000000000000000000082169050919050565b600073ffffffffffffffffffffffffffffffffffffffff82169050919050565b6000819050919050565b82818337600083830152505050565b60005b83811015614cb2578082015181840152602081019050614c97565b83811115614cc1576000848401525b50505050565b60006002820490506001821680614cdf57607f821691505b60208210811415614cf357614cf2614e02565b5b50919050565b614d0282614ea3565b810181811067ffffffffffffffff82111715614d2157614d20614e60565b5b80604052505050565b6000614d3582614c7b565b91507fffffffffffffffffffffffffffffffffffffffffffffffffffffffffffffffff821415614d6857614d67614da4565b5b600182019050919050565b6000614d7e82614c7b565b9150614d8983614c7b565b925082614d9957614d98614dd3565b5b828206905092915050565b7f4e487b7100000000000000000000000000000000000000000000000000000000600052601160045260246000fd5b7f4e487b7100000000000000000000000000000000000000000000000000000000600052601260045260246000fd5b7f4e487b7100000000000000000000000000000000000000000000000000000000600052602260045260246000fd5b7f4e487b7100000000000000000000000000000000000000000000000000000000600052603260045260246000fd5b7f4e487b7100000000000000000000000000000000000000000000000000000000600052604160045260246000fd5b600080fd5b600080fd5b600080fd5b600080fd5b6000601f19601f8301169050919050565b7f4552433732313a207472616e7366657220746f206e6f6e20455243373231526560008201527f63656976657220696d706c656d656e7465720000000000000000000000000000602082015250565b7f4552433732313a207472616e736665722066726f6d20696e636f72726563742060008201527f6f776e6572000000000000000000000000000000000000000000000000000000602082015250565b7f4552433732313a20746f6b656e20616c7265616479206d696e74656400000000600082015250565b7f4552433732313a207472616e7366657220746f20746865207a65726f2061646460008201527f7265737300000000000000000000000000000000000000000000000000000000602082015250565b7f4552433732313a20617070726f766520746f2063616c6c657200000000000000600082015250565b7f4552433732313a206f70657261746f7220717565727920666f72206e6f6e657860008201527f697374656e7420746f6b656e0000000000000000000000000000000000000000602082015250565b7f4552433732313a20617070726f76652063616c6c6572206973206e6f74206f7760008201527f6e6572206e6f7220617070726f76656420666f7220616c6c0000000000000000602082015250565b7f4552433732313a2062616c616e636520717565727920666f7220746865207a6560008201527f726f206164647265737300000000000000000000000000000000000000000000602082015250565b7f4552433732313a206f776e657220717565727920666f72206e6f6e657869737460008201527f656e7420746f6b656e0000000000000000000000000000000000000000000000602082015250565b7f4552433732313a206d696e7420746f20746865207a65726f2061646472657373600082015250565b7f4552433732313a20617070726f76656420717565727920666f72206e6f6e657860008201527f697374656e7420746f6b656e0000000000000000000000000000000000000000602082015250565b7f4552433732314d657461646174613a2055524920736574206f66206e6f6e657860008201527f697374656e7420746f6b656e0000000000000000000000000000000000000000602082015250565b7f4552433732314d657461646174613a2055524920717565727920666f72206e6f60008201527f6e6578697374656e7420746f6b656e0000000000000000000000000000000000602082015250565b7f4552433732313a20617070726f76616c20746f2063757272656e74206f776e6560008201527f7200000000000000000000000000000000000000000000000000000000000000602082015250565b7f4552433732313a207472616e736665722063616c6c6572206973206e6f74206f60008201527f776e6572206e6f7220617070726f766564000000000000000000000000000000602082015250565b6152ec81614c11565b81146152f757600080fd5b50565b61530381614c23565b811461530e57600080fd5b50565b61531a81614c2f565b811461532557600080fd5b50565b61533181614c7b565b811461533c57600080fd5b5056fea264697066735822122000af93e4bde0ee21dfb9b42cc5998d264ba92b9a3de9ceb78eb15acb461dd7b964736f6c63430008060033",
  "linkReferences": {},
  "deployedLinkReferences": {}
}